{
  "contractName": "Marketplace",
  "abi": [
    {
      "inputs": [
        {
          "internalType": "address",
          "name": "_tokenAddress",
          "type": "address"
        },
        {
          "internalType": "address",
          "name": "_nftAddress",
          "type": "address"
        }
      ],
      "stateMutability": "nonpayable",
      "type": "constructor"
    },
    {
      "inputs": [
        {
          "internalType": "uint256",
          "name": "",
          "type": "uint256"
        }
      ],
      "name": "ItemsForSale",
      "outputs": [
        {
          "internalType": "address",
          "name": "seller",
          "type": "address"
        },
        {
          "internalType": "uint256",
          "name": "priceInWW",
          "type": "uint256"
        }
      ],
      "stateMutability": "view",
      "type": "function",
      "constant": true
    },
    {
      "inputs": [],
      "name": "mintToken",
      "outputs": [],
      "stateMutability": "nonpayable",
      "type": "function"
    },
    {
      "inputs": [
        {
          "internalType": "uint256",
          "name": "_assetId",
          "type": "uint256"
        },
        {
          "internalType": "uint256",
          "name": "_priceInWW",
          "type": "uint256"
        }
      ],
      "name": "UserSaleRequest",
      "outputs": [],
      "stateMutability": "nonpayable",
      "type": "function"
    },
    {
      "inputs": [
        {
          "internalType": "uint256",
          "name": "_assetId",
          "type": "uint256"
        },
        {
          "internalType": "uint256",
          "name": "_payment",
          "type": "uint256"
        }
      ],
      "name": "UserPurchaseRequest",
      "outputs": [],
      "stateMutability": "nonpayable",
      "type": "function"
    }
  ],
  "bytecode": "0x60806040523480156200001157600080fd5b5060405162000f7238038062000f728339818101604052810190620000379190620000d8565b81600160006101000a81548173ffffffffffffffffffffffffffffffffffffffff021916908373ffffffffffffffffffffffffffffffffffffffff16021790555080600260006101000a81548173ffffffffffffffffffffffffffffffffffffffff021916908373ffffffffffffffffffffffffffffffffffffffff160217905550505062000172565b600081519050620000d28162000158565b92915050565b60008060408385031215620000f257620000f162000153565b5b60006200010285828601620000c1565b92505060206200011585828601620000c1565b9150509250929050565b60006200012c8262000133565b9050919050565b600073ffffffffffffffffffffffffffffffffffffffff82169050919050565b600080fd5b62000163816200011f565b81146200016f57600080fd5b50565b610df080620001826000396000f3fe608060405234801561001057600080fd5b506004361061004c5760003560e01c80632004ffd914610051578063665edb291461005b578063761a0c0314610077578063ed3b8cd614610093575b600080fd5b6100596100c4565b005b610075600480360381019061007091906108e6565b610178565b005b610091600480360381019061008c91906108e6565b6105ea565b005b6100ad60048036038101906100a8919061088c565b610665565b6040516100bb929190610a22565b60405180910390f35b6000600260009054906101000a900473ffffffffffffffffffffffffffffffffffffffff1673ffffffffffffffffffffffffffffffffffffffff166363250887336040518263ffffffff1660e01b815260040161012191906109d0565b602060405180830381600087803b15801561013b57600080fd5b505af115801561014f573d6000803e3d6000fd5b505050506040513d601f19601f8201168201806040525081019061017391906108b9565b905050565b600073ffffffffffffffffffffffffffffffffffffffff1660008084815260200190815260200160002060000160009054906101000a900473ffffffffffffffffffffffffffffffffffffffff1673ffffffffffffffffffffffffffffffffffffffff16141561021d576040517f08c379a000000000000000000000000000000000000000000000000000000000815260040161021490610a8b565b60405180910390fd5b600080600084815260200190815260200160002060000160009054906101000a900473ffffffffffffffffffffffffffffffffffffffff1690506000806000858152602001908152602001600020600101549050600061029a606461028c6002856106a990919063ffffffff16565b6106bf90919063ffffffff16565b90506102af81836106d590919063ffffffff16565b84146102f0576040517f08c379a00000000000000000000000000000000000000000000000000000000081526004016102e790610a6b565b60405180910390fd5b600160009054906101000a900473ffffffffffffffffffffffffffffffffffffffff1673ffffffffffffffffffffffffffffffffffffffff166323b872dd3330846040518463ffffffff1660e01b815260040161034f939291906109eb565b602060405180830381600087803b15801561036957600080fd5b505af115801561037d573d6000803e3d6000fd5b505050506040513d601f19601f820116820180604052508101906103a1919061085f565b6103e0576040517f08c379a00000000000000000000000000000000000000000000000000000000081526004016103d790610a4b565b60405180910390fd5b600160009054906101000a900473ffffffffffffffffffffffffffffffffffffffff1673ffffffffffffffffffffffffffffffffffffffff166323b872dd338561043385896106eb90919063ffffffff16565b6040518463ffffffff1660e01b8152600401610451939291906109eb565b602060405180830381600087803b15801561046b57600080fd5b505af115801561047f573d6000803e3d6000fd5b505050506040513d601f19601f820116820180604052508101906104a3919061085f565b6104e2576040517f08c379a00000000000000000000000000000000000000000000000000000000081526004016104d990610aab565b60405180910390fd5b600260009054906101000a900473ffffffffffffffffffffffffffffffffffffffff1673ffffffffffffffffffffffffffffffffffffffff166342842e0e8433886040518463ffffffff1660e01b8152600401610541939291906109eb565b600060405180830381600087803b15801561055b57600080fd5b505af115801561056f573d6000803e3d6000fd5b50505050600080600087815260200190815260200160002060000160006101000a81548173ffffffffffffffffffffffffffffffffffffffff021916908373ffffffffffffffffffffffffffffffffffffffff1602179055506000806000878152602001908152602001600020600101819055505050505050565b3360008084815260200190815260200160002060000160006101000a81548173ffffffffffffffffffffffffffffffffffffffff021916908373ffffffffffffffffffffffffffffffffffffffff160217905550806000808481526020019081526020016000206001018190555061066181610701565b5050565b60006020528060005260406000206000915090508060000160009054906101000a900473ffffffffffffffffffffffffffffffffffffffff16908060010154905082565b600081836106b79190610b63565b905092915050565b600081836106cd9190610b32565b905092915050565b600081836106e39190610adc565b905092915050565b600081836106f99190610bbd565b905092915050565b600061072a606461071c6002856106a990919063ffffffff16565b6106bf90919063ffffffff16565b9050600160009054906101000a900473ffffffffffffffffffffffffffffffffffffffff1673ffffffffffffffffffffffffffffffffffffffff166323b872dd3330846040518463ffffffff1660e01b815260040161078b939291906109eb565b602060405180830381600087803b1580156107a557600080fd5b505af11580156107b9573d6000803e3d6000fd5b505050506040513d601f19601f820116820180604052508101906107dd919061085f565b61081c576040517f08c379a000000000000000000000000000000000000000000000000000000000815260040161081390610a4b565b60405180910390fd5b5050565b60008151905061082f81610d8c565b92915050565b60008135905061084481610da3565b92915050565b60008151905061085981610da3565b92915050565b60006020828403121561087557610874610c97565b5b600061088384828501610820565b91505092915050565b6000602082840312156108a2576108a1610c97565b5b60006108b084828501610835565b91505092915050565b6000602082840312156108cf576108ce610c97565b5b60006108dd8482850161084a565b91505092915050565b600080604083850312156108fd576108fc610c97565b5b600061090b85828601610835565b925050602061091c85828601610835565b9150509250929050565b61092f81610bf1565b82525050565b6000610942603383610acb565b915061094d82610c9c565b604082019050919050565b6000610965601b83610acb565b915061097082610ceb565b602082019050919050565b6000610988601283610acb565b915061099382610d14565b602082019050919050565b60006109ab603083610acb565b91506109b682610d3d565b604082019050919050565b6109ca81610c2f565b82525050565b60006020820190506109e56000830184610926565b92915050565b6000606082019050610a006000830186610926565b610a0d6020830185610926565b610a1a60408301846109c1565b949350505050565b6000604082019050610a376000830185610926565b610a4460208301846109c1565b9392505050565b60006020820190508181036000830152610a6481610935565b9050919050565b60006020820190508181036000830152610a8481610958565b9050919050565b60006020820190508181036000830152610aa48161097b565b9050919050565b60006020820190508181036000830152610ac48161099e565b9050919050565b600082825260208201905092915050565b6000610ae782610c2f565b9150610af283610c2f565b9250827fffffffffffffffffffffffffffffffffffffffffffffffffffffffffffffffff03821115610b2757610b26610c39565b5b828201905092915050565b6000610b3d82610c2f565b9150610b4883610c2f565b925082610b5857610b57610c68565b5b828204905092915050565b6000610b6e82610c2f565b9150610b7983610c2f565b9250817fffffffffffffffffffffffffffffffffffffffffffffffffffffffffffffffff0483118215151615610bb257610bb1610c39565b5b828202905092915050565b6000610bc882610c2f565b9150610bd383610c2f565b925082821015610be657610be5610c39565b5b828203905092915050565b6000610bfc82610c0f565b9050919050565b60008115159050919050565b600073ffffffffffffffffffffffffffffffffffffffff82169050919050565b6000819050919050565b7f4e487b7100000000000000000000000000000000000000000000000000000000600052601160045260246000fd5b7f4e487b7100000000000000000000000000000000000000000000000000000000600052601260045260246000fd5b600080fd5b7f5472616e73666572696e67207468652063757420746f20746865204d61726b6560008201527f74706c616365206f776e6572206661696c656400000000000000000000000000602082015250565b7f7061796d656e742073656e74206973206e6f7420636f72726563740000000000600082015250565b7f4974656d206e6f7420617661696c61626c650000000000000000000000000000600082015250565b7f5472616e73666572696e67207468652073616c6520616d6f756e7420746f207460008201527f68652073656c6c6572206661696c656400000000000000000000000000000000602082015250565b610d9581610c03565b8114610da057600080fd5b50565b610dac81610c2f565b8114610db757600080fd5b5056fea26469706673582212206407a5e11c26ec199a46eede3e1bc3c5c17e9ad9987abce04adc85385a1ba8dc64736f6c63430008060033",
  "immutableReferences": {},
  "source": "// SPDX-License-Identifier: MIT\r\npragma solidity >= 0.7;\r\n\r\nimport \"./WWToken.sol\";\r\nimport \"./WWNFTToken.sol\";\r\nimport \"../client/node_modules/@openzeppelin/contracts/utils/math/SafeMath.sol\";\r\n\r\ncontract Marketplace{\r\n    using SafeMath for uint;\r\n\r\n    struct ItemsDetails{\r\n        // uint ItemId;\r\n        address seller;\r\n        uint priceInWW;\r\n    }\r\n\r\n    //stores the items put up for sale by users againt assetID/TokenID\r\n    mapping(uint => ItemsDetails) public ItemsForSale;\r\n    // mapping(address => uint) public mintedTokenByUser;\r\n    \r\n    WWToken wwToken;\r\n    WWNFTToken wwNftToken;\r\n\r\n    constructor(address _tokenAddress, address _nftAddress) {\r\n        wwToken = WWToken(_tokenAddress);\r\n        wwNftToken = WWNFTToken(_nftAddress);\r\n    }\r\n    \r\n    function mintToken() public {\r\n        uint newItemId = wwNftToken.mintForUser(msg.sender);\r\n        // mintedTokenByUser[msg.sender] = newItemId;\r\n    }\r\n\r\n    function transferCutToOwner(uint _price) internal {\r\n        \r\n        //payment to Market place owner to put up the sale request\r\n        //2% of the Item price\r\n        uint marketOwnerRate = 0;\r\n        marketOwnerRate = _price.mul(2).div(100);\r\n\r\n        //must be approved \r\n        require(\r\n        wwToken.transferFrom(msg.sender, address(this), marketOwnerRate),\r\n        \"Transfering the cut to the Marketplace owner failed\"\r\n        );\r\n\r\n    }\r\n\r\n    function UserSaleRequest(uint _assetId, uint _priceInWW) public {\r\n        ItemsForSale[_assetId].seller = msg.sender;\r\n        ItemsForSale[_assetId].priceInWW = _priceInWW;  \r\n\r\n        transferCutToOwner(_priceInWW);\r\n    }\r\n\r\n    function UserPurchaseRequest(uint _assetId, uint _payment) public {\r\n        // Transfer sale amount to seller\r\n        require(ItemsForSale[_assetId].seller != address(0), \"Item not available\");\r\n        address _seller  = ItemsForSale[_assetId].seller;\r\n        uint _priceInWW = ItemsForSale[_assetId].priceInWW;\r\n        \r\n        //marketOwner's Rate must be included in the payment from user and the left must be equal to the NFT Item's price\r\n        //2% of the deal\r\n        uint marketOwnerRate = 0;\r\n        marketOwnerRate = _priceInWW.mul(2).div(100);\r\n\r\n        require(\r\n        _payment == _priceInWW.add(marketOwnerRate), \r\n        \"payment sent is not correct\"\r\n        );\r\n\r\n        //must be approved\r\n        require(\r\n        wwToken.transferFrom(msg.sender, address(this), marketOwnerRate),\r\n        \"Transfering the cut to the Marketplace owner failed\"\r\n        );\r\n\r\n        require(\r\n        wwToken.transferFrom(msg.sender, _seller, _payment.sub(marketOwnerRate)),\r\n        \"Transfering the sale amount to the seller failed\"\r\n        );\r\n        \r\n        // Transfer asset owner\r\n        wwNftToken.safeTransferFrom(_seller, msg.sender, _assetId);\r\n\r\n        //remove the asset from the ItemsForSale\r\n        ItemsForSale[_assetId].seller = address(0);\r\n        ItemsForSale[_assetId].priceInWW = 0;\r\n    \r\n    }\r\n\r\n}",
  "sourcePath": "C:\\Workspace\\Blockchain\\WorldWithin\\contracts\\Marketplace.sol",
  "compiler": {
    "name": "solc",
    "version": "0.8.6+commit.11564f7e.Emscripten.clang"
  },
  "schemaVersion": "3.4.2",
  "updatedAt": "2021-08-08T12:18:31.097Z",
  "networkType": "ethereum",
  "devdoc": {
    "kind": "dev",
    "methods": {},
    "version": 1
  },
  "userdoc": {
    "kind": "user",
    "methods": {},
    "version": 1
  }
}