{
  "contractName": "Marketplace",
  "abi": [
    {
      "inputs": [
        {
          "internalType": "address",
          "name": "_tokenAddress",
          "type": "address"
        },
        {
          "internalType": "address",
          "name": "_nftAddress",
          "type": "address"
        }
      ],
      "stateMutability": "nonpayable",
      "type": "constructor"
    },
    {
      "inputs": [
        {
          "internalType": "uint256",
          "name": "",
          "type": "uint256"
        }
      ],
      "name": "ItemsForSale",
      "outputs": [
        {
          "internalType": "address",
          "name": "seller",
          "type": "address"
        },
        {
          "internalType": "uint256",
          "name": "priceInWW",
          "type": "uint256"
        }
      ],
      "stateMutability": "view",
      "type": "function"
    },
    {
      "inputs": [],
      "name": "WWNFTTokenInstance",
      "outputs": [
        {
          "internalType": "contract WWNFTToken",
          "name": "",
          "type": "address"
        }
      ],
      "stateMutability": "view",
      "type": "function"
    },
    {
      "inputs": [],
      "name": "WWtokenInstance",
      "outputs": [
        {
          "internalType": "contract WWToken",
          "name": "",
          "type": "address"
        }
      ],
      "stateMutability": "view",
      "type": "function"
    },
    {
      "inputs": [],
      "name": "mintToken",
      "outputs": [],
      "stateMutability": "nonpayable",
      "type": "function"
    },
    {
      "inputs": [
        {
          "internalType": "uint256",
          "name": "_assetId",
          "type": "uint256"
        },
        {
          "internalType": "uint256",
          "name": "_priceInWW",
          "type": "uint256"
        }
      ],
      "name": "UserSaleRequest",
      "outputs": [],
      "stateMutability": "nonpayable",
      "type": "function"
    },
    {
      "inputs": [
        {
          "internalType": "uint256",
          "name": "_assetId",
          "type": "uint256"
        },
        {
          "internalType": "uint256",
          "name": "_payment",
          "type": "uint256"
        }
      ],
      "name": "UserPurchaseRequest",
      "outputs": [],
      "stateMutability": "nonpayable",
      "type": "function"
    }
  ],
  "bytecode": "0x60806040523480156200001157600080fd5b50604051620010ac380380620010ac8339818101604052810190620000379190620000d8565b81600160006101000a81548173ffffffffffffffffffffffffffffffffffffffff021916908373ffffffffffffffffffffffffffffffffffffffff16021790555080600260006101000a81548173ffffffffffffffffffffffffffffffffffffffff021916908373ffffffffffffffffffffffffffffffffffffffff160217905550505062000172565b600081519050620000d28162000158565b92915050565b60008060408385031215620000f257620000f162000153565b5b60006200010285828601620000c1565b92505060206200011585828601620000c1565b9150509250929050565b60006200012c8262000133565b9050919050565b600073ffffffffffffffffffffffffffffffffffffffff82169050919050565b600080fd5b62000163816200011f565b81146200016f57600080fd5b50565b610f2a80620001826000396000f3fe608060405234801561001057600080fd5b50600436106100625760003560e01c80632004ffd91461006757806351bdca8f14610071578063665edb291461008f5780637433aab5146100ab578063761a0c03146100c9578063ed3b8cd6146100e5575b600080fd5b61006f610116565b005b6100796101ca565b6040516100869190610b22565b60405180910390f35b6100a960048036038101906100a49190610984565b6101f0565b005b6100b3610662565b6040516100c09190610b07565b60405180910390f35b6100e360048036038101906100de9190610984565b610688565b005b6100ff60048036038101906100fa919061092a565b610703565b60405161010d929190610ade565b60405180910390f35b6000600260009054906101000a900473ffffffffffffffffffffffffffffffffffffffff1673ffffffffffffffffffffffffffffffffffffffff166363250887336040518263ffffffff1660e01b81526004016101739190610a8c565b602060405180830381600087803b15801561018d57600080fd5b505af11580156101a1573d6000803e3d6000fd5b505050506040513d601f19601f820116820180604052508101906101c59190610957565b905050565b600160009054906101000a900473ffffffffffffffffffffffffffffffffffffffff1681565b600073ffffffffffffffffffffffffffffffffffffffff1660008084815260200190815260200160002060000160009054906101000a900473ffffffffffffffffffffffffffffffffffffffff1673ffffffffffffffffffffffffffffffffffffffff161415610295576040517f08c379a000000000000000000000000000000000000000000000000000000000815260040161028c90610b7d565b60405180910390fd5b600080600084815260200190815260200160002060000160009054906101000a900473ffffffffffffffffffffffffffffffffffffffff16905060008060008581526020019081526020016000206001015490506000610312606461030460028561074790919063ffffffff16565b61075d90919063ffffffff16565b9050610327818361077390919063ffffffff16565b8414610368576040517f08c379a000000000000000000000000000000000000000000000000000000000815260040161035f90610b5d565b60405180910390fd5b600160009054906101000a900473ffffffffffffffffffffffffffffffffffffffff1673ffffffffffffffffffffffffffffffffffffffff166323b872dd3330846040518463ffffffff1660e01b81526004016103c793929190610aa7565b602060405180830381600087803b1580156103e157600080fd5b505af11580156103f5573d6000803e3d6000fd5b505050506040513d601f19601f8201168201806040525081019061041991906108fd565b610458576040517f08c379a000000000000000000000000000000000000000000000000000000000815260040161044f90610b3d565b60405180910390fd5b600160009054906101000a900473ffffffffffffffffffffffffffffffffffffffff1673ffffffffffffffffffffffffffffffffffffffff166323b872dd33856104ab858961078990919063ffffffff16565b6040518463ffffffff1660e01b81526004016104c993929190610aa7565b602060405180830381600087803b1580156104e357600080fd5b505af11580156104f7573d6000803e3d6000fd5b505050506040513d601f19601f8201168201806040525081019061051b91906108fd565b61055a576040517f08c379a000000000000000000000000000000000000000000000000000000000815260040161055190610b9d565b60405180910390fd5b600260009054906101000a900473ffffffffffffffffffffffffffffffffffffffff1673ffffffffffffffffffffffffffffffffffffffff166342842e0e8433886040518463ffffffff1660e01b81526004016105b993929190610aa7565b600060405180830381600087803b1580156105d357600080fd5b505af11580156105e7573d6000803e3d6000fd5b50505050600080600087815260200190815260200160002060000160006101000a81548173ffffffffffffffffffffffffffffffffffffffff021916908373ffffffffffffffffffffffffffffffffffffffff1602179055506000806000878152602001908152602001600020600101819055505050505050565b600260009054906101000a900473ffffffffffffffffffffffffffffffffffffffff1681565b3360008084815260200190815260200160002060000160006101000a81548173ffffffffffffffffffffffffffffffffffffffff021916908373ffffffffffffffffffffffffffffffffffffffff16021790555080600080848152602001908152602001600020600101819055506106ff8161079f565b5050565b60006020528060005260406000206000915090508060000160009054906101000a900473ffffffffffffffffffffffffffffffffffffffff16908060010154905082565b600081836107559190610c55565b905092915050565b6000818361076b9190610c24565b905092915050565b600081836107819190610bce565b905092915050565b600081836107979190610caf565b905092915050565b60006107c860646107ba60028561074790919063ffffffff16565b61075d90919063ffffffff16565b9050600160009054906101000a900473ffffffffffffffffffffffffffffffffffffffff1673ffffffffffffffffffffffffffffffffffffffff166323b872dd3330846040518463ffffffff1660e01b815260040161082993929190610aa7565b602060405180830381600087803b15801561084357600080fd5b505af1158015610857573d6000803e3d6000fd5b505050506040513d601f19601f8201168201806040525081019061087b91906108fd565b6108ba576040517f08c379a00000000000000000000000000000000000000000000000000000000081526004016108b190610b3d565b60405180910390fd5b5050565b6000815190506108cd81610ec6565b92915050565b6000813590506108e281610edd565b92915050565b6000815190506108f781610edd565b92915050565b60006020828403121561091357610912610dd1565b5b6000610921848285016108be565b91505092915050565b6000602082840312156109405761093f610dd1565b5b600061094e848285016108d3565b91505092915050565b60006020828403121561096d5761096c610dd1565b5b600061097b848285016108e8565b91505092915050565b6000806040838503121561099b5761099a610dd1565b5b60006109a9858286016108d3565b92505060206109ba858286016108d3565b9150509250929050565b6109cd81610ce3565b82525050565b6109dc81610d2b565b82525050565b6109eb81610d4f565b82525050565b60006109fe603383610bbd565b9150610a0982610dd6565b604082019050919050565b6000610a21601b83610bbd565b9150610a2c82610e25565b602082019050919050565b6000610a44601283610bbd565b9150610a4f82610e4e565b602082019050919050565b6000610a67603083610bbd565b9150610a7282610e77565b604082019050919050565b610a8681610d21565b82525050565b6000602082019050610aa160008301846109c4565b92915050565b6000606082019050610abc60008301866109c4565b610ac960208301856109c4565b610ad66040830184610a7d565b949350505050565b6000604082019050610af360008301856109c4565b610b006020830184610a7d565b9392505050565b6000602082019050610b1c60008301846109d3565b92915050565b6000602082019050610b3760008301846109e2565b92915050565b60006020820190508181036000830152610b56816109f1565b9050919050565b60006020820190508181036000830152610b7681610a14565b9050919050565b60006020820190508181036000830152610b9681610a37565b9050919050565b60006020820190508181036000830152610bb681610a5a565b9050919050565b600082825260208201905092915050565b6000610bd982610d21565b9150610be483610d21565b9250827fffffffffffffffffffffffffffffffffffffffffffffffffffffffffffffffff03821115610c1957610c18610d73565b5b828201905092915050565b6000610c2f82610d21565b9150610c3a83610d21565b925082610c4a57610c49610da2565b5b828204905092915050565b6000610c6082610d21565b9150610c6b83610d21565b9250817fffffffffffffffffffffffffffffffffffffffffffffffffffffffffffffffff0483118215151615610ca457610ca3610d73565b5b828202905092915050565b6000610cba82610d21565b9150610cc583610d21565b925082821015610cd857610cd7610d73565b5b828203905092915050565b6000610cee82610d01565b9050919050565b60008115159050919050565b600073ffffffffffffffffffffffffffffffffffffffff82169050919050565b6000819050919050565b6000610d3682610d3d565b9050919050565b6000610d4882610d01565b9050919050565b6000610d5a82610d61565b9050919050565b6000610d6c82610d01565b9050919050565b7f4e487b7100000000000000000000000000000000000000000000000000000000600052601160045260246000fd5b7f4e487b7100000000000000000000000000000000000000000000000000000000600052601260045260246000fd5b600080fd5b7f5472616e73666572696e67207468652063757420746f20746865204d61726b6560008201527f74706c616365206f776e6572206661696c656400000000000000000000000000602082015250565b7f7061796d656e742073656e74206973206e6f7420636f72726563740000000000600082015250565b7f4974656d206e6f7420617661696c61626c650000000000000000000000000000600082015250565b7f5472616e73666572696e67207468652073616c6520616d6f756e7420746f207460008201527f68652073656c6c6572206661696c656400000000000000000000000000000000602082015250565b610ecf81610cf5565b8114610eda57600080fd5b50565b610ee681610d21565b8114610ef157600080fd5b5056fea264697066735822122025c6615bcfec8b6f9d8139b18c1c349ae94610735793fca885c04a6dbf0dbb4364736f6c63430008060033",
  "immutableReferences": {},
  "source": "// SPDX-License-Identifier: MIT\r\npragma solidity >= 0.7;\r\n\r\nimport \"./WWToken.sol\";\r\nimport \"./WWNFTToken.sol\";\r\nimport \"../client/node_modules/@openzeppelin/contracts/utils/math/SafeMath.sol\";\r\n\r\ncontract Marketplace{\r\n    using SafeMath for uint;\r\n\r\n    struct ItemsDetails{\r\n        // uint ItemId;\r\n        address seller;\r\n        uint priceInWW;\r\n    }\r\n\r\n    //stores the items put up for sale by users againt assetID/TokenID\r\n    mapping(uint => ItemsDetails) public ItemsForSale;\r\n    \r\n    WWToken public WWtokenInstance;\r\n    WWNFTToken public WWNFTTokenInstance;\r\n\r\n    constructor(address _tokenAddress, address _nftAddress) {\r\n        WWtokenInstance = WWToken(_tokenAddress);\r\n        WWNFTTokenInstance = WWNFTToken(_nftAddress);\r\n    }\r\n    \r\n    function mintToken() public {\r\n        uint newItemId = WWNFTTokenInstance.mintForUser(msg.sender);\r\n    }\r\n\r\n    function transferCutToOwner(uint _price) internal {\r\n        \r\n        //payment to Market place owner to put up the sale request\r\n        //2% of the Item price\r\n        uint marketOwnerRate = 0;\r\n        marketOwnerRate = _price.mul(2).div(100);\r\n\r\n        //must be approved \r\n        require(\r\n        WWtokenInstance.transferFrom(msg.sender, address(this), marketOwnerRate),\r\n        \"Transfering the cut to the Marketplace owner failed\"\r\n        );\r\n\r\n    }\r\n\r\n    function UserSaleRequest(uint _assetId, uint _priceInWW) public {\r\n        ItemsForSale[_assetId].seller = msg.sender;\r\n        ItemsForSale[_assetId].priceInWW = _priceInWW;  \r\n\r\n        transferCutToOwner(_priceInWW);\r\n    }\r\n\r\n    function UserPurchaseRequest(uint _assetId, uint _payment) public {\r\n        // Transfer sale amount to seller\r\n        require(ItemsForSale[_assetId].seller != address(0), \"Item not available\");\r\n        address _seller  = ItemsForSale[_assetId].seller;\r\n        uint _priceInWW = ItemsForSale[_assetId].priceInWW;\r\n        \r\n        //marketOwner's Rate must be included in the payment from user and the left must be equal to the NFT Item's price\r\n        //2% of the deal\r\n        uint marketOwnerRate = 0;\r\n        marketOwnerRate = _priceInWW.mul(2).div(100);\r\n\r\n        require(\r\n        _payment == _priceInWW.add(marketOwnerRate), \r\n        \"payment sent is not correct\"\r\n        );\r\n\r\n        //must be approved\r\n        require(\r\n        WWtokenInstance.transferFrom(msg.sender, address(this), marketOwnerRate),\r\n        \"Transfering the cut to the Marketplace owner failed\"\r\n        );\r\n\r\n        require(\r\n        WWtokenInstance.transferFrom(msg.sender, _seller, _payment.sub(marketOwnerRate)),\r\n        \"Transfering the sale amount to the seller failed\"\r\n        );\r\n        \r\n        // Transfer asset owner\r\n        WWNFTTokenInstance.safeTransferFrom(_seller, msg.sender, _assetId);\r\n\r\n        //remove the asset from the ItemsForSale\r\n        ItemsForSale[_assetId].seller = address(0);\r\n        ItemsForSale[_assetId].priceInWW = 0;\r\n    \r\n    }\r\n\r\n}",
  "sourcePath": "C:\\Workspace\\Blockchain\\WorldWithin\\contracts\\Marketplace.sol",
  "compiler": {
    "name": "solc",
    "version": "0.8.6+commit.11564f7e.Emscripten.clang"
  },
  "schemaVersion": "3.4.2",
  "updatedAt": "2021-08-07T23:55:09.958Z",
  "devdoc": {
    "kind": "dev",
    "methods": {},
    "version": 1
  },
  "userdoc": {
    "kind": "user",
    "methods": {},
    "version": 1
  }
}