{
  "contractName": "WWNFTToken",
  "abi": [
    {
      "inputs": [],
      "stateMutability": "nonpayable",
      "type": "constructor"
    },
    {
      "anonymous": false,
      "inputs": [
        {
          "indexed": true,
          "internalType": "address",
          "name": "owner",
          "type": "address"
        },
        {
          "indexed": true,
          "internalType": "address",
          "name": "approved",
          "type": "address"
        },
        {
          "indexed": true,
          "internalType": "uint256",
          "name": "tokenId",
          "type": "uint256"
        }
      ],
      "name": "Approval",
      "type": "event"
    },
    {
      "anonymous": false,
      "inputs": [
        {
          "indexed": true,
          "internalType": "address",
          "name": "owner",
          "type": "address"
        },
        {
          "indexed": true,
          "internalType": "address",
          "name": "operator",
          "type": "address"
        },
        {
          "indexed": false,
          "internalType": "bool",
          "name": "approved",
          "type": "bool"
        }
      ],
      "name": "ApprovalForAll",
      "type": "event"
    },
    {
      "anonymous": false,
      "inputs": [
        {
          "indexed": true,
          "internalType": "address",
          "name": "from",
          "type": "address"
        },
        {
          "indexed": true,
          "internalType": "address",
          "name": "to",
          "type": "address"
        },
        {
          "indexed": true,
          "internalType": "uint256",
          "name": "tokenId",
          "type": "uint256"
        }
      ],
      "name": "Transfer",
      "type": "event"
    },
    {
      "inputs": [
        {
          "internalType": "uint256",
          "name": "",
          "type": "uint256"
        }
      ],
      "name": "Items",
      "outputs": [
        {
          "internalType": "uint256",
          "name": "",
          "type": "uint256"
        }
      ],
      "stateMutability": "view",
      "type": "function"
    },
    {
      "inputs": [
        {
          "internalType": "address",
          "name": "to",
          "type": "address"
        },
        {
          "internalType": "uint256",
          "name": "tokenId",
          "type": "uint256"
        }
      ],
      "name": "approve",
      "outputs": [],
      "stateMutability": "nonpayable",
      "type": "function"
    },
    {
      "inputs": [
        {
          "internalType": "address",
          "name": "owner",
          "type": "address"
        }
      ],
      "name": "balanceOf",
      "outputs": [
        {
          "internalType": "uint256",
          "name": "",
          "type": "uint256"
        }
      ],
      "stateMutability": "view",
      "type": "function"
    },
    {
      "inputs": [
        {
          "internalType": "uint256",
          "name": "tokenId",
          "type": "uint256"
        }
      ],
      "name": "getApproved",
      "outputs": [
        {
          "internalType": "address",
          "name": "",
          "type": "address"
        }
      ],
      "stateMutability": "view",
      "type": "function"
    },
    {
      "inputs": [
        {
          "internalType": "address",
          "name": "owner",
          "type": "address"
        },
        {
          "internalType": "address",
          "name": "operator",
          "type": "address"
        }
      ],
      "name": "isApprovedForAll",
      "outputs": [
        {
          "internalType": "bool",
          "name": "",
          "type": "bool"
        }
      ],
      "stateMutability": "view",
      "type": "function"
    },
    {
      "inputs": [],
      "name": "name",
      "outputs": [
        {
          "internalType": "string",
          "name": "",
          "type": "string"
        }
      ],
      "stateMutability": "view",
      "type": "function"
    },
    {
      "inputs": [
        {
          "internalType": "uint256",
          "name": "tokenId",
          "type": "uint256"
        }
      ],
      "name": "ownerOf",
      "outputs": [
        {
          "internalType": "address",
          "name": "",
          "type": "address"
        }
      ],
      "stateMutability": "view",
      "type": "function"
    },
    {
      "inputs": [
        {
          "internalType": "address",
          "name": "from",
          "type": "address"
        },
        {
          "internalType": "address",
          "name": "to",
          "type": "address"
        },
        {
          "internalType": "uint256",
          "name": "tokenId",
          "type": "uint256"
        }
      ],
      "name": "safeTransferFrom",
      "outputs": [],
      "stateMutability": "nonpayable",
      "type": "function"
    },
    {
      "inputs": [
        {
          "internalType": "address",
          "name": "from",
          "type": "address"
        },
        {
          "internalType": "address",
          "name": "to",
          "type": "address"
        },
        {
          "internalType": "uint256",
          "name": "tokenId",
          "type": "uint256"
        },
        {
          "internalType": "bytes",
          "name": "_data",
          "type": "bytes"
        }
      ],
      "name": "safeTransferFrom",
      "outputs": [],
      "stateMutability": "nonpayable",
      "type": "function"
    },
    {
      "inputs": [
        {
          "internalType": "address",
          "name": "operator",
          "type": "address"
        },
        {
          "internalType": "bool",
          "name": "approved",
          "type": "bool"
        }
      ],
      "name": "setApprovalForAll",
      "outputs": [],
      "stateMutability": "nonpayable",
      "type": "function"
    },
    {
      "inputs": [
        {
          "internalType": "bytes4",
          "name": "interfaceId",
          "type": "bytes4"
        }
      ],
      "name": "supportsInterface",
      "outputs": [
        {
          "internalType": "bool",
          "name": "",
          "type": "bool"
        }
      ],
      "stateMutability": "view",
      "type": "function"
    },
    {
      "inputs": [],
      "name": "symbol",
      "outputs": [
        {
          "internalType": "string",
          "name": "",
          "type": "string"
        }
      ],
      "stateMutability": "view",
      "type": "function"
    },
    {
      "inputs": [
        {
          "internalType": "uint256",
          "name": "tokenId",
          "type": "uint256"
        }
      ],
      "name": "tokenURI",
      "outputs": [
        {
          "internalType": "string",
          "name": "",
          "type": "string"
        }
      ],
      "stateMutability": "view",
      "type": "function"
    },
    {
      "inputs": [
        {
          "internalType": "address",
          "name": "from",
          "type": "address"
        },
        {
          "internalType": "address",
          "name": "to",
          "type": "address"
        },
        {
          "internalType": "uint256",
          "name": "tokenId",
          "type": "uint256"
        }
      ],
      "name": "transferFrom",
      "outputs": [],
      "stateMutability": "nonpayable",
      "type": "function"
    },
    {
      "inputs": [
        {
          "internalType": "address",
          "name": "_user",
          "type": "address"
        }
      ],
      "name": "mintForUser",
      "outputs": [
        {
          "internalType": "uint256",
          "name": "",
          "type": "uint256"
        }
      ],
      "stateMutability": "nonpayable",
      "type": "function"
    }
  ],
  "bytecode": "0x60806040523480156200001157600080fd5b506040518060400160405280600a81526020017f57574e4654546f6b656e000000000000000000000000000000000000000000008152506040518060400160405280600581526020017f5757544b4e000000000000000000000000000000000000000000000000000000815250816000908051906020019062000096929190620000b8565b508060019080519060200190620000af929190620000b8565b505050620001cd565b828054620000c69062000168565b90600052602060002090601f016020900481019282620000ea576000855562000136565b82601f106200010557805160ff191683800117855562000136565b8280016001018555821562000136579182015b828111156200013557825182559160200191906001019062000118565b5b50905062000145919062000149565b5090565b5b80821115620001645760008160009055506001016200014a565b5090565b600060028204905060018216806200018157607f821691505b602082108114156200019857620001976200019e565b5b50919050565b7f4e487b7100000000000000000000000000000000000000000000000000000000600052602260045260246000fd5b6127f480620001dd6000396000f3fe608060405234801561001057600080fd5b50600436106100f55760003560e01c80636325088711610097578063a22cb46511610066578063a22cb465146102aa578063b88d4fde146102c6578063c87b56dd146102e2578063e985e9c514610312576100f5565b806363250887146101fc5780636352211e1461022c57806370a082311461025c57806395d89b411461028c576100f5565b8063095ea7b3116100d3578063095ea7b31461017857806317b47cc41461019457806323b872dd146101c457806342842e0e146101e0576100f5565b806301ffc9a7146100fa57806306fdde031461012a578063081812fc14610148575b600080fd5b610114600480360381019061010f91906119a7565b610342565b6040516101219190611d73565b60405180910390f35b610132610424565b60405161013f9190611d8e565b60405180910390f35b610162600480360381019061015d9190611a01565b6104b6565b60405161016f9190611d0c565b60405180910390f35b610192600480360381019061018d9190611967565b61053b565b005b6101ae60048036038101906101a99190611a01565b610653565b6040516101bb9190611f70565b60405180910390f35b6101de60048036038101906101d99190611851565b610677565b005b6101fa60048036038101906101f59190611851565b6106d7565b005b610216600480360381019061021191906117e4565b6106f7565b6040516102239190611f70565b60405180910390f35b61024660048036038101906102419190611a01565b610748565b6040516102539190611d0c565b60405180910390f35b610276600480360381019061027191906117e4565b6107fa565b6040516102839190611f70565b60405180910390f35b6102946108b2565b6040516102a19190611d8e565b60405180910390f35b6102c460048036038101906102bf9190611927565b610944565b005b6102e060048036038101906102db91906118a4565b610ac5565b005b6102fc60048036038101906102f79190611a01565b610b27565b6040516103099190611d8e565b60405180910390f35b61032c60048036038101906103279190611811565b610bce565b6040516103399190611d73565b60405180910390f35b60007f80ac58cd000000000000000000000000000000000000000000000000000000007bffffffffffffffffffffffffffffffffffffffffffffffffffffffff1916827bffffffffffffffffffffffffffffffffffffffffffffffffffffffff1916148061040d57507f5b5e139f000000000000000000000000000000000000000000000000000000007bffffffffffffffffffffffffffffffffffffffffffffffffffffffff1916827bffffffffffffffffffffffffffffffffffffffffffffffffffffffff1916145b8061041d575061041c82610c62565b5b9050919050565b60606000805461043390612195565b80601f016020809104026020016040519081016040528092919081815260200182805461045f90612195565b80156104ac5780601f10610481576101008083540402835291602001916104ac565b820191906000526020600020905b81548152906001019060200180831161048f57829003601f168201915b5050505050905090565b60006104c182610ccc565b610500576040517f08c379a00000000000000000000000000000000000000000000000000000000081526004016104f790611ed0565b60405180910390fd5b6004600083815260200190815260200160002060009054906101000a900473ffffffffffffffffffffffffffffffffffffffff169050919050565b600061054682610748565b90508073ffffffffffffffffffffffffffffffffffffffff168373ffffffffffffffffffffffffffffffffffffffff1614156105b7576040517f08c379a00000000000000000000000000000000000000000000000000000000081526004016105ae90611f30565b60405180910390fd5b8073ffffffffffffffffffffffffffffffffffffffff166105d6610d38565b73ffffffffffffffffffffffffffffffffffffffff1614806106055750610604816105ff610d38565b610bce565b5b610644576040517f08c379a000000000000000000000000000000000000000000000000000000000815260040161063b90611e50565b60405180910390fd5b61064e8383610d40565b505050565b6007818154811061066357600080fd5b906000526020600020016000915090505481565b610688610682610d38565b82610df9565b6106c7576040517f08c379a00000000000000000000000000000000000000000000000000000000081526004016106be90611f50565b60405180910390fd5b6106d2838383610ed7565b505050565b6106f283838360405180602001604052806000815250610ac5565b505050565b60008082905060006107096006611133565b90506107158282611141565b60078190806001815401808255809150506001900390600052602060002001600090919091909150558092505050919050565b6000806002600084815260200190815260200160002060009054906101000a900473ffffffffffffffffffffffffffffffffffffffff169050600073ffffffffffffffffffffffffffffffffffffffff168173ffffffffffffffffffffffffffffffffffffffff1614156107f1576040517f08c379a00000000000000000000000000000000000000000000000000000000081526004016107e890611e90565b60405180910390fd5b80915050919050565b60008073ffffffffffffffffffffffffffffffffffffffff168273ffffffffffffffffffffffffffffffffffffffff16141561086b576040517f08c379a000000000000000000000000000000000000000000000000000000000815260040161086290611e70565b60405180910390fd5b600360008373ffffffffffffffffffffffffffffffffffffffff1673ffffffffffffffffffffffffffffffffffffffff168152602001908152602001600020549050919050565b6060600180546108c190612195565b80601f01602080910402602001604051908101604052809291908181526020018280546108ed90612195565b801561093a5780601f1061090f5761010080835404028352916020019161093a565b820191906000526020600020905b81548152906001019060200180831161091d57829003601f168201915b5050505050905090565b61094c610d38565b73ffffffffffffffffffffffffffffffffffffffff168273ffffffffffffffffffffffffffffffffffffffff1614156109ba576040517f08c379a00000000000000000000000000000000000000000000000000000000081526004016109b190611e10565b60405180910390fd5b80600560006109c7610d38565b73ffffffffffffffffffffffffffffffffffffffff1673ffffffffffffffffffffffffffffffffffffffff16815260200190815260200160002060008473ffffffffffffffffffffffffffffffffffffffff1673ffffffffffffffffffffffffffffffffffffffff16815260200190815260200160002060006101000a81548160ff0219169083151502179055508173ffffffffffffffffffffffffffffffffffffffff16610a74610d38565b73ffffffffffffffffffffffffffffffffffffffff167f17307eab39ab6107e8899845ad3d59bd9653f200f220920489ca2b5937696c3183604051610ab99190611d73565b60405180910390a35050565b610ad6610ad0610d38565b83610df9565b610b15576040517f08c379a0000000000000000000000000000000000000000000000000000000008152600401610b0c90611f50565b60405180910390fd5b610b218484848461115f565b50505050565b6060610b3282610ccc565b610b71576040517f08c379a0000000000000000000000000000000000000000000000000000000008152600401610b6890611f10565b60405180910390fd5b6000610b7b6111bb565b90506000815111610b9b5760405180602001604052806000815250610bc6565b80610ba5846111d2565b604051602001610bb6929190611ce8565b6040516020818303038152906040525b915050919050565b6000600560008473ffffffffffffffffffffffffffffffffffffffff1673ffffffffffffffffffffffffffffffffffffffff16815260200190815260200160002060008373ffffffffffffffffffffffffffffffffffffffff1673ffffffffffffffffffffffffffffffffffffffff16815260200190815260200160002060009054906101000a900460ff16905092915050565b60007f01ffc9a7000000000000000000000000000000000000000000000000000000007bffffffffffffffffffffffffffffffffffffffffffffffffffffffff1916827bffffffffffffffffffffffffffffffffffffffffffffffffffffffff1916149050919050565b60008073ffffffffffffffffffffffffffffffffffffffff166002600084815260200190815260200160002060009054906101000a900473ffffffffffffffffffffffffffffffffffffffff1673ffffffffffffffffffffffffffffffffffffffff1614159050919050565b600033905090565b816004600083815260200190815260200160002060006101000a81548173ffffffffffffffffffffffffffffffffffffffff021916908373ffffffffffffffffffffffffffffffffffffffff160217905550808273ffffffffffffffffffffffffffffffffffffffff16610db383610748565b73ffffffffffffffffffffffffffffffffffffffff167f8c5be1e5ebec7d5bd14f71427d1e84f3dd0314c0f7b2291e5b200ac8c7c3b92560405160405180910390a45050565b6000610e0482610ccc565b610e43576040517f08c379a0000000000000000000000000000000000000000000000000000000008152600401610e3a90611e30565b60405180910390fd5b6000610e4e83610748565b90508073ffffffffffffffffffffffffffffffffffffffff168473ffffffffffffffffffffffffffffffffffffffff161480610ebd57508373ffffffffffffffffffffffffffffffffffffffff16610ea5846104b6565b73ffffffffffffffffffffffffffffffffffffffff16145b80610ece5750610ecd8185610bce565b5b91505092915050565b8273ffffffffffffffffffffffffffffffffffffffff16610ef782610748565b73ffffffffffffffffffffffffffffffffffffffff1614610f4d576040517f08c379a0000000000000000000000000000000000000000000000000000000008152600401610f4490611ef0565b60405180910390fd5b600073ffffffffffffffffffffffffffffffffffffffff168273ffffffffffffffffffffffffffffffffffffffff161415610fbd576040517f08c379a0000000000000000000000000000000000000000000000000000000008152600401610fb490611df0565b60405180910390fd5b610fc8838383611333565b610fd3600082610d40565b6001600360008573ffffffffffffffffffffffffffffffffffffffff1673ffffffffffffffffffffffffffffffffffffffff168152602001908152602001600020600082825461102391906120ab565b925050819055506001600360008473ffffffffffffffffffffffffffffffffffffffff1673ffffffffffffffffffffffffffffffffffffffff168152602001908152602001600020600082825461107a9190612024565b92505081905550816002600083815260200190815260200160002060006101000a81548173ffffffffffffffffffffffffffffffffffffffff021916908373ffffffffffffffffffffffffffffffffffffffff160217905550808273ffffffffffffffffffffffffffffffffffffffff168473ffffffffffffffffffffffffffffffffffffffff167fddf252ad1be2c89b69c2b068fc378daa952ba7f163c4a11628f55a4df523b3ef60405160405180910390a4505050565b600081600001549050919050565b61115b828260405180602001604052806000815250611338565b5050565b61116a848484610ed7565b61117684848484611393565b6111b5576040517f08c379a00000000000000000000000000000000000000000000000000000000081526004016111ac90611db0565b60405180910390fd5b50505050565b606060405180602001604052806000815250905090565b6060600082141561121a576040518060400160405280600181526020017f3000000000000000000000000000000000000000000000000000000000000000815250905061132e565b600082905060005b6000821461124c578080611235906121f8565b915050600a82611245919061207a565b9150611222565b60008167ffffffffffffffff8111156112685761126761232e565b5b6040519080825280601f01601f19166020018201604052801561129a5781602001600182028036833780820191505090505b5090505b60008514611327576001826112b391906120ab565b9150600a856112c29190612241565b60306112ce9190612024565b60f81b8183815181106112e4576112e36122ff565b5b60200101907effffffffffffffffffffffffffffffffffffffffffffffffffffffffffffff1916908160001a905350600a85611320919061207a565b945061129e565b8093505050505b919050565b505050565b611342838361152a565b61134f6000848484611393565b61138e576040517f08c379a000000000000000000000000000000000000000000000000000000000815260040161138590611db0565b60405180910390fd5b505050565b60006113b48473ffffffffffffffffffffffffffffffffffffffff166116f8565b1561151d578373ffffffffffffffffffffffffffffffffffffffff1663150b7a026113dd610d38565b8786866040518563ffffffff1660e01b81526004016113ff9493929190611d27565b602060405180830381600087803b15801561141957600080fd5b505af192505050801561144a57506040513d601f19601f8201168201806040525081019061144791906119d4565b60015b6114cd573d806000811461147a576040519150601f19603f3d011682016040523d82523d6000602084013e61147f565b606091505b506000815114156114c5576040517f08c379a00000000000000000000000000000000000000000000000000000000081526004016114bc90611db0565b60405180910390fd5b805181602001fd5b63150b7a0260e01b7bffffffffffffffffffffffffffffffffffffffffffffffffffffffff1916817bffffffffffffffffffffffffffffffffffffffffffffffffffffffff191614915050611522565b600190505b949350505050565b600073ffffffffffffffffffffffffffffffffffffffff168273ffffffffffffffffffffffffffffffffffffffff16141561159a576040517f08c379a000000000000000000000000000000000000000000000000000000000815260040161159190611eb0565b60405180910390fd5b6115a381610ccc565b156115e3576040517f08c379a00000000000000000000000000000000000000000000000000000000081526004016115da90611dd0565b60405180910390fd5b6115ef60008383611333565b6001600360008473ffffffffffffffffffffffffffffffffffffffff1673ffffffffffffffffffffffffffffffffffffffff168152602001908152602001600020600082825461163f9190612024565b92505081905550816002600083815260200190815260200160002060006101000a81548173ffffffffffffffffffffffffffffffffffffffff021916908373ffffffffffffffffffffffffffffffffffffffff160217905550808273ffffffffffffffffffffffffffffffffffffffff16600073ffffffffffffffffffffffffffffffffffffffff167fddf252ad1be2c89b69c2b068fc378daa952ba7f163c4a11628f55a4df523b3ef60405160405180910390a45050565b600080823b905060008111915050919050565b600061171e61171984611fb0565b611f8b565b90508281526020810184848401111561173a57611739612362565b5b611745848285612153565b509392505050565b60008135905061175c81612762565b92915050565b60008135905061177181612779565b92915050565b60008135905061178681612790565b92915050565b60008151905061179b81612790565b92915050565b600082601f8301126117b6576117b561235d565b5b81356117c684826020860161170b565b91505092915050565b6000813590506117de816127a7565b92915050565b6000602082840312156117fa576117f961236c565b5b60006118088482850161174d565b91505092915050565b600080604083850312156118285761182761236c565b5b60006118368582860161174d565b92505060206118478582860161174d565b9150509250929050565b60008060006060848603121561186a5761186961236c565b5b60006118788682870161174d565b93505060206118898682870161174d565b925050604061189a868287016117cf565b9150509250925092565b600080600080608085870312156118be576118bd61236c565b5b60006118cc8782880161174d565b94505060206118dd8782880161174d565b93505060406118ee878288016117cf565b925050606085013567ffffffffffffffff81111561190f5761190e612367565b5b61191b878288016117a1565b91505092959194509250565b6000806040838503121561193e5761193d61236c565b5b600061194c8582860161174d565b925050602061195d85828601611762565b9150509250929050565b6000806040838503121561197e5761197d61236c565b5b600061198c8582860161174d565b925050602061199d858286016117cf565b9150509250929050565b6000602082840312156119bd576119bc61236c565b5b60006119cb84828501611777565b91505092915050565b6000602082840312156119ea576119e961236c565b5b60006119f88482850161178c565b91505092915050565b600060208284031215611a1757611a1661236c565b5b6000611a25848285016117cf565b91505092915050565b611a37816120df565b82525050565b611a46816120f1565b82525050565b6000611a5782611fe1565b611a618185611ff7565b9350611a71818560208601612162565b611a7a81612371565b840191505092915050565b6000611a9082611fec565b611a9a8185612008565b9350611aaa818560208601612162565b611ab381612371565b840191505092915050565b6000611ac982611fec565b611ad38185612019565b9350611ae3818560208601612162565b80840191505092915050565b6000611afc603283612008565b9150611b0782612382565b604082019050919050565b6000611b1f601c83612008565b9150611b2a826123d1565b602082019050919050565b6000611b42602483612008565b9150611b4d826123fa565b604082019050919050565b6000611b65601983612008565b9150611b7082612449565b602082019050919050565b6000611b88602c83612008565b9150611b9382612472565b604082019050919050565b6000611bab603883612008565b9150611bb6826124c1565b604082019050919050565b6000611bce602a83612008565b9150611bd982612510565b604082019050919050565b6000611bf1602983612008565b9150611bfc8261255f565b604082019050919050565b6000611c14602083612008565b9150611c1f826125ae565b602082019050919050565b6000611c37602c83612008565b9150611c42826125d7565b604082019050919050565b6000611c5a602983612008565b9150611c6582612626565b604082019050919050565b6000611c7d602f83612008565b9150611c8882612675565b604082019050919050565b6000611ca0602183612008565b9150611cab826126c4565b604082019050919050565b6000611cc3603183612008565b9150611cce82612713565b604082019050919050565b611ce281612149565b82525050565b6000611cf48285611abe565b9150611d008284611abe565b91508190509392505050565b6000602082019050611d216000830184611a2e565b92915050565b6000608082019050611d3c6000830187611a2e565b611d496020830186611a2e565b611d566040830185611cd9565b8181036060830152611d688184611a4c565b905095945050505050565b6000602082019050611d886000830184611a3d565b92915050565b60006020820190508181036000830152611da88184611a85565b905092915050565b60006020820190508181036000830152611dc981611aef565b9050919050565b60006020820190508181036000830152611de981611b12565b9050919050565b60006020820190508181036000830152611e0981611b35565b9050919050565b60006020820190508181036000830152611e2981611b58565b9050919050565b60006020820190508181036000830152611e4981611b7b565b9050919050565b60006020820190508181036000830152611e6981611b9e565b9050919050565b60006020820190508181036000830152611e8981611bc1565b9050919050565b60006020820190508181036000830152611ea981611be4565b9050919050565b60006020820190508181036000830152611ec981611c07565b9050919050565b60006020820190508181036000830152611ee981611c2a565b9050919050565b60006020820190508181036000830152611f0981611c4d565b9050919050565b60006020820190508181036000830152611f2981611c70565b9050919050565b60006020820190508181036000830152611f4981611c93565b9050919050565b60006020820190508181036000830152611f6981611cb6565b9050919050565b6000602082019050611f856000830184611cd9565b92915050565b6000611f95611fa6565b9050611fa182826121c7565b919050565b6000604051905090565b600067ffffffffffffffff821115611fcb57611fca61232e565b5b611fd482612371565b9050602081019050919050565b600081519050919050565b600081519050919050565b600082825260208201905092915050565b600082825260208201905092915050565b600081905092915050565b600061202f82612149565b915061203a83612149565b9250827fffffffffffffffffffffffffffffffffffffffffffffffffffffffffffffffff0382111561206f5761206e612272565b5b828201905092915050565b600061208582612149565b915061209083612149565b9250826120a05761209f6122a1565b5b828204905092915050565b60006120b682612149565b91506120c183612149565b9250828210156120d4576120d3612272565b5b828203905092915050565b60006120ea82612129565b9050919050565b60008115159050919050565b60007fffffffff0000000000000000000000000000000000000000000000000000000082169050919050565b600073ffffffffffffffffffffffffffffffffffffffff82169050919050565b6000819050919050565b82818337600083830152505050565b60005b83811015612180578082015181840152602081019050612165565b8381111561218f576000848401525b50505050565b600060028204905060018216806121ad57607f821691505b602082108114156121c1576121c06122d0565b5b50919050565b6121d082612371565b810181811067ffffffffffffffff821117156121ef576121ee61232e565b5b80604052505050565b600061220382612149565b91507fffffffffffffffffffffffffffffffffffffffffffffffffffffffffffffffff82141561223657612235612272565b5b600182019050919050565b600061224c82612149565b915061225783612149565b925082612267576122666122a1565b5b828206905092915050565b7f4e487b7100000000000000000000000000000000000000000000000000000000600052601160045260246000fd5b7f4e487b7100000000000000000000000000000000000000000000000000000000600052601260045260246000fd5b7f4e487b7100000000000000000000000000000000000000000000000000000000600052602260045260246000fd5b7f4e487b7100000000000000000000000000000000000000000000000000000000600052603260045260246000fd5b7f4e487b7100000000000000000000000000000000000000000000000000000000600052604160045260246000fd5b600080fd5b600080fd5b600080fd5b600080fd5b6000601f19601f8301169050919050565b7f4552433732313a207472616e7366657220746f206e6f6e20455243373231526560008201527f63656976657220696d706c656d656e7465720000000000000000000000000000602082015250565b7f4552433732313a20746f6b656e20616c7265616479206d696e74656400000000600082015250565b7f4552433732313a207472616e7366657220746f20746865207a65726f2061646460008201527f7265737300000000000000000000000000000000000000000000000000000000602082015250565b7f4552433732313a20617070726f766520746f2063616c6c657200000000000000600082015250565b7f4552433732313a206f70657261746f7220717565727920666f72206e6f6e657860008201527f697374656e7420746f6b656e0000000000000000000000000000000000000000602082015250565b7f4552433732313a20617070726f76652063616c6c6572206973206e6f74206f7760008201527f6e6572206e6f7220617070726f76656420666f7220616c6c0000000000000000602082015250565b7f4552433732313a2062616c616e636520717565727920666f7220746865207a6560008201527f726f206164647265737300000000000000000000000000000000000000000000602082015250565b7f4552433732313a206f776e657220717565727920666f72206e6f6e657869737460008201527f656e7420746f6b656e0000000000000000000000000000000000000000000000602082015250565b7f4552433732313a206d696e7420746f20746865207a65726f2061646472657373600082015250565b7f4552433732313a20617070726f76656420717565727920666f72206e6f6e657860008201527f697374656e7420746f6b656e0000000000000000000000000000000000000000602082015250565b7f4552433732313a207472616e73666572206f6620746f6b656e2074686174206960008201527f73206e6f74206f776e0000000000000000000000000000000000000000000000602082015250565b7f4552433732314d657461646174613a2055524920717565727920666f72206e6f60008201527f6e6578697374656e7420746f6b656e0000000000000000000000000000000000602082015250565b7f4552433732313a20617070726f76616c20746f2063757272656e74206f776e6560008201527f7200000000000000000000000000000000000000000000000000000000000000602082015250565b7f4552433732313a207472616e736665722063616c6c6572206973206e6f74206f60008201527f776e6572206e6f7220617070726f766564000000000000000000000000000000602082015250565b61276b816120df565b811461277657600080fd5b50565b612782816120f1565b811461278d57600080fd5b50565b612799816120fd565b81146127a457600080fd5b50565b6127b081612149565b81146127bb57600080fd5b5056fea2646970667358221220c9f8512896b23376fc4c94a708baeee1b365ea635fbb7bbac590b93bea154b5064736f6c63430008060033",
  "immutableReferences": {},
  "source": "// SPDX-License-Identifier: MIT\r\npragma solidity >= 0.7;\r\n\r\nimport \"../client/node_modules/@openzeppelin/contracts/token/ERC721/ERC721.sol\";\r\nimport \"../client/node_modules/@openzeppelin/contracts/utils/Counters.sol\";\r\n\r\ncontract WWNFTToken is ERC721{\r\n    using Counters for Counters.Counter;\r\n    Counters.Counter private _tokenIds;\r\n    uint[] public Items;\r\n\r\n    constructor() ERC721(\"WWNFTToken\", \"WWTKN\") {\r\n    }\r\n\r\n    function mintForUser(address _user) public returns(uint) {\r\n        address user = _user;\r\n        // _tokenIds.increment();\r\n        uint256 newItemId = _tokenIds.current();\r\n        _safeMint(user, newItemId);\r\n        \r\n        Items.push(newItemId);\r\n        //add a tokenURI\r\n\r\n        return newItemId;\r\n    }\r\n\r\n}",
  "sourcePath": "C:\\Workspace\\Blockchain\\WorldWithin\\contracts\\WWNFTToken.sol",
  "compiler": {
    "name": "solc",
    "version": "0.8.6+commit.11564f7e.Emscripten.clang"
  },
  "schemaVersion": "3.4.2",
  "updatedAt": "2021-08-07T23:55:09.966Z",
  "devdoc": {
    "kind": "dev",
    "methods": {
      "approve(address,uint256)": {
        "details": "See {IERC721-approve}."
      },
      "balanceOf(address)": {
        "details": "See {IERC721-balanceOf}."
      },
      "getApproved(uint256)": {
        "details": "See {IERC721-getApproved}."
      },
      "isApprovedForAll(address,address)": {
        "details": "See {IERC721-isApprovedForAll}."
      },
      "name()": {
        "details": "See {IERC721Metadata-name}."
      },
      "ownerOf(uint256)": {
        "details": "See {IERC721-ownerOf}."
      },
      "safeTransferFrom(address,address,uint256)": {
        "details": "See {IERC721-safeTransferFrom}."
      },
      "safeTransferFrom(address,address,uint256,bytes)": {
        "details": "See {IERC721-safeTransferFrom}."
      },
      "setApprovalForAll(address,bool)": {
        "details": "See {IERC721-setApprovalForAll}."
      },
      "supportsInterface(bytes4)": {
        "details": "See {IERC165-supportsInterface}."
      },
      "symbol()": {
        "details": "See {IERC721Metadata-symbol}."
      },
      "tokenURI(uint256)": {
        "details": "See {IERC721Metadata-tokenURI}."
      },
      "transferFrom(address,address,uint256)": {
        "details": "See {IERC721-transferFrom}."
      }
    },
    "version": 1
  },
  "userdoc": {
    "kind": "user",
    "methods": {},
    "version": 1
  }
}